{"abi":[{"type":"function","name":"getAmountIn","inputs":[{"name":"amountOut","type":"uint256","internalType":"uint256"},{"name":"reserveIn","type":"uint256","internalType":"uint256"},{"name":"reserveOut","type":"uint256","internalType":"uint256"}],"outputs":[{"name":"","type":"uint256","internalType":"uint256"}],"stateMutability":"pure"},{"type":"function","name":"getAmountOut","inputs":[{"name":"amountIn","type":"uint256","internalType":"uint256"},{"name":"reserveIn","type":"uint256","internalType":"uint256"},{"name":"reserveOut","type":"uint256","internalType":"uint256"}],"outputs":[{"name":"","type":"uint256","internalType":"uint256"}],"stateMutability":"pure"},{"type":"function","name":"quote","inputs":[{"name":"amountIn","type":"uint256","internalType":"uint256"},{"name":"reserveIn","type":"uint256","internalType":"uint256"},{"name":"reserveOut","type":"uint256","internalType":"uint256"}],"outputs":[{"name":"amountOut","type":"uint256","internalType":"uint256"}],"stateMutability":"pure"},{"type":"error","name":"InsufficientAmount","inputs":[]},{"type":"error","name":"InsufficientLiquidity","inputs":[]},{"type":"error","name":"InvalidPath","inputs":[]}],"bytecode":{"object":"0x612b6f61003a600b82828239805160001a60731461002d57634e487b7160e01b600052600060045260246000fd5b30600052607381538281f3fe7300000000000000000000000000000000000000003014608060405260043610620000735760003560e01c8063054d50d41462000078578063192128b214620000a25780633274946114620000d657806385f8c2591462000111578063ad615dec1462000128578063bb7b9c76146200013f575b600080fd5b6200008f620000893660046200081d565b62000164565b6040519081526020015b60405180910390f35b818015620000af57600080fd5b50620000c7620000c13660046200087d565b62000208565b6040516200009991906200096e565b818015620000e357600080fd5b50620000fb620000f5366004620009b4565b62000396565b6040805192835260208301919091520162000099565b6200008f620001223660046200081d565b6200046e565b6200008f620001393660046200081d565b62000519565b8180156200014c57600080fd5b50620000c76200015e3660046200087d565b62000586565b6000836200018557604051632ca2f52b60e11b815260040160405180910390fd5b82158062000191575081155b15620001b05760405163bb55fd2760e01b815260040160405180910390fd5b6000620001c0856103e562000a14565b90506000620001d0848362000a14565b9050600082620001e3876103e862000a14565b620001ef919062000a36565b9050620001fd818362000a51565b979650505050505050565b60606002825110156200022e576040516320db826760e01b815260040160405180910390fd5b6000825167ffffffffffffffff8111156200024d576200024d62000867565b60405190808252806020026020018201604052801562000277578160200160208202803683370190505b5090508381600183516200028c919062000a74565b815181106200029f576200029f62000a8e565b602002602001018181525050600060018451620002bd919062000a74565b90505b80156200038d576000806200031b8887620002dd60018762000a74565b81518110620002f057620002f062000a8e565b60200260200101518886815181106200030d576200030d62000a8e565b602002602001015162000396565b915091506200034884848151811062000338576200033862000a8e565b602002602001015183836200046e565b846200035660018662000a74565b8151811062000369576200036962000a8e565b60200260200101818152505050508080620003849062000aa4565b915050620002c0565b50949350505050565b600080600080620003a88686620006f0565b91509150600080620003bc89858562000723565b6001600160a01b0316630902f1ac6040518163ffffffff1660e01b81526004016060604051808303816000875af1158015620003fc573d6000803e3d6000fd5b505050506040513d601f19601f8201168201806040525081019062000422919062000ad6565b506001600160701b031691506001600160701b03169150836001600160a01b0316886001600160a01b0316146200045b5780826200045e565b81815b909a909950975050505050505050565b6000836200048f57604051632ca2f52b60e11b815260040160405180910390fd5b8215806200049b575081155b15620004ba5760405163bb55fd2760e01b815260040160405180910390fd5b6000620004c8858562000a14565b620004d6906103e862000a14565b90506000620004e6868562000a74565b620004f4906103e562000a14565b905062000502818362000a51565b6200050f90600162000a36565b9695505050505050565b6000836200053a57604051632ca2f52b60e11b815260040160405180910390fd5b82158062000546575081155b15620005655760405163bb55fd2760e01b815260040160405180910390fd5b8262000572838662000a14565b6200057e919062000a51565b949350505050565b6060600282511015620005ac576040516320db826760e01b815260040160405180910390fd5b6000825167ffffffffffffffff811115620005cb57620005cb62000867565b604051908082528060200260200182016040528015620005f5578160200160208202803683370190505b50905083816000815181106200060f576200060f62000a8e565b60200260200101818152505060005b600184516200062e919062000a74565b8110156200038d576000806200067e8887858151811062000653576200065362000a8e565b6020026020010151888660016200066b919062000a36565b815181106200030d576200030d62000a8e565b91509150620006ab8484815181106200069b576200069b62000a8e565b6020026020010151838362000164565b84620006b985600162000a36565b81518110620006cc57620006cc62000a8e565b60200260200101818152505050508080620006e79062000b2c565b9150506200061e565b600080826001600160a01b0316846001600160a01b0316106200071557828462000718565b83835b915091509250929050565b6000806000620007348585620006f0565b6040516bffffffffffffffffffffffff19606084811b8216602084015283901b1660348201529193509150869060480160405160208183030381529060405280519060200120604051806020016200078c906200080f565b6020820181038252601f19601f8201166040525080519060200120604051602001620007ed939291906001600160f81b0319815260609390931b6bffffffffffffffffffffffff191660018401526015830191909152603582015260550190565b60408051601f1981840301815291905280516020909101209695505050505050565b611fef8062000b4b83390190565b6000806000606084860312156200083357600080fd5b505081359360208301359350604090920135919050565b80356001600160a01b03811681146200086257600080fd5b919050565b634e487b7160e01b600052604160045260246000fd5b6000806000606084860312156200089357600080fd5b6200089e846200084a565b92506020808501359250604085013567ffffffffffffffff80821115620008c457600080fd5b818701915087601f830112620008d957600080fd5b813581811115620008ee57620008ee62000867565b8060051b604051601f19603f8301168101818110858211171562000916576200091662000867565b60405291825284820192508381018501918a8311156200093557600080fd5b938501935b828510156200095e576200094e856200084a565b845293850193928501926200093a565b8096505050505050509250925092565b6020808252825182820181905260009190848201906040850190845b81811015620009a8578351835292840192918401916001016200098a565b50909695505050505050565b600080600060608486031215620009ca57600080fd5b620009d5846200084a565b9250620009e5602085016200084a565b9150620009f5604085016200084a565b90509250925092565b634e487b7160e01b600052601160045260246000fd5b600081600019048311821515161562000a315762000a31620009fe565b500290565b6000821982111562000a4c5762000a4c620009fe565b500190565b60008262000a6f57634e487b7160e01b600052601260045260246000fd5b500490565b60008282101562000a895762000a89620009fe565b500390565b634e487b7160e01b600052603260045260246000fd5b60008162000ab65762000ab6620009fe565b506000190190565b80516001600160701b03811681146200086257600080fd5b60008060006060848603121562000aec57600080fd5b62000af78462000abe565b925062000b076020850162000abe565b9150604084015163ffffffff8116811462000b2157600080fd5b809150509250925092565b600060001982141562000b435762000b43620009fe565b506001019056fe60e06040523480156200001157600080fd5b50604080518082018252600f81526e2d3ab734b9bbb0b82b19102830b4b960891b6020808301918252835180850190945260068452652d2aa724ab1960d11b9084015281519192916012916200006b916000919062000155565b5081516200008190600190602085019062000155565b5060ff81166080524660a05262000097620000a4565b60c05250620002dc915050565b60007f8b73c3c69bb8fe3d512ecc4cf759cc79239f7b179b0ffacaa9a75d522b39400f6000604051620000d8919062000238565b60408051918290038220828201825260018352603160f81b6020938401528151928301939093528101919091527fc89efdaa54c0f20c7adf612882df0950f5a951637e0307cdcb4c672f298b8bc660608201524660808201523060a082015260c00160405160208183030381529060405280519060200120905090565b8280546200016390620001fb565b90600052602060002090601f016020900481019282620001875760008555620001d2565b82601f10620001a257805160ff1916838001178555620001d2565b82800160010185558215620001d2579182015b82811115620001d2578251825591602001919060010190620001b5565b50620001e0929150620001e4565b5090565b5b80821115620001e05760008155600101620001e5565b600181811c908216806200021057607f821691505b602082108114156200023257634e487b7160e01b600052602260045260246000fd5b50919050565b600080835481600182811c9150808316806200025557607f831692505b60208084108214156200027657634e487b7160e01b86526022600452602486fd5b8180156200028d57600181146200029f57620002ce565b60ff19861689528489019650620002ce565b60008a81526020902060005b86811015620002c65781548b820152908501908301620002ab565b505084890196505b509498975050505050505050565b60805160a05160c051611ce36200030c60003960006109ed015260006109b80152600061025d0152611ce36000f3fe608060405234801561001057600080fd5b506004361061014d5760003560e01c80635909c0d5116100c357806395d89b411161007c57806395d89b4114610339578063a9059cbb14610341578063d21220a714610354578063d505accf14610367578063dd62ed3e1461037a578063fff6cae9146103a557600080fd5b80635909c0d5146102ac5780635a3d5493146102b55780636a627842146102be57806370a08231146102d15780637ecebe00146102f157806389afcb441461031157600080fd5b806318160ddd1161011557806318160ddd1461020757806323b872dd1461021e57806330adf81f14610231578063313ce567146102585780633644e51514610291578063485cc9551461029957600080fd5b8063022c0d9f1461015257806306fdde03146101675780630902f1ac14610185578063095ea7b3146101b95780630dfe1681146101dc575b600080fd5b610165610160366004611818565b6103ad565b005b61016f6107a8565b60405161017c91906118dc565b60405180910390f35b61018d610836565b604080516001600160701b03948516815293909216602084015263ffffffff169082015260600161017c565b6101cc6101c736600461190f565b610860565b604051901515815260200161017c565b6006546101ef906001600160a01b031681565b6040516001600160a01b03909116815260200161017c565b61021060025481565b60405190815260200161017c565b6101cc61022c366004611939565b6108cc565b6102107f6e71edae12b1b97f4d1f60370fef10105fa2faae0126114a169c64845d6126c981565b61027f7f000000000000000000000000000000000000000000000000000000000000000081565b60405160ff909116815260200161017c565b6102106109b4565b6101656102a7366004611975565b610a0f565b61021060095481565b610210600a5481565b6102106102cc3660046119a8565b610a7d565b6102106102df3660046119a8565b60036020526000908152604090205481565b6102106102ff3660046119a8565b60056020526000908152604090205481565b61032461031f3660046119a8565b610cb9565b6040805192835260208301919091520161017c565b61016f610f98565b6101cc61034f36600461190f565b610fa5565b6007546101ef906001600160a01b031681565b6101656103753660046119c3565b61100b565b610210610388366004611975565b600460209081526000928352604080842090915290825290205481565b610165611270565b600b5460ff16156103bd57600080fd5b600b805460ff19166001179055841580156103d6575083155b156103f4576040516342301c2360e01b815260040160405180910390fd5b6000806103ff610836565b5091509150600080836001600160701b03168911806104265750826001600160701b031688115b156104445760405163bb55fd2760e01b815260040160405180910390fd5b881561046157600654610461906001600160a01b0316888b61136d565b871561047e5760075461047e906001600160a01b0316888a61136d565b84156104eb57604051630c68e5d560e41b81526001600160a01b0388169063c68e5d50906104b89033908d908d908c908c90600401611a36565b600060405180830381600087803b1580156104d257600080fd5b505af11580156104e6573d6000803e3d6000fd5b505050505b6006546040516370a0823160e01b81523060048201526001600160a01b03909116906370a08231906024016020604051808303816000875af1158015610535573d6000803e3d6000fd5b505050506040513d601f19601f820116820180604052508101906105599190611a82565b6007546040516370a0823160e01b81523060048201529193506001600160a01b0316906370a08231906024016020604051808303816000875af11580156105a4573d6000803e3d6000fd5b505050506040513d601f19601f820116820180604052508101906105c89190611a82565b6008549091506000906105e5908b906001600160701b0316611ab1565b83116105f2576000610613565b600854610609908b906001600160701b0316611ab1565b6106139084611ab1565b600854909150600090610637908b90600160701b90046001600160701b0316611ab1565b831161064457600061066c565b600854610662908b90600160701b90046001600160701b0316611ab1565b61066c9084611ab1565b90508115801561067a575080155b156106985760405163098fb56160e01b815260040160405180910390fd5b60006106a5836003611ac8565b6106b1866103e8611ac8565b6106bb9190611ab1565b905060006106ca836003611ac8565b6106d6866103e8611ac8565b6106e09190611ab1565b90506106f86001600160701b03808916908a16611ac8565b61070590620f4240611ac8565b61070f8284611ac8565b101561072e57604051632f62f0d960e21b815260040160405180910390fd5b505061073c8484888861145c565b60408051838152602081018390529081018c9052606081018b90526001600160a01b038a169033907fd78ad95fa46c994b6551d0da85fc275fe613ce37657fb8d5e3d130840159d8229060800160405180910390a35050600b805460ff19169055505050505050505050565b600080546107b590611ae7565b80601f01602080910402602001604051908101604052809291908181526020018280546107e190611ae7565b801561082e5780601f106108035761010080835404028352916020019161082e565b820191906000526020600020905b81548152906001019060200180831161081157829003601f168201915b505050505081565b6008546001600160701b0380821692600160701b830490911691600160e01b900463ffffffff1690565b3360008181526004602090815260408083206001600160a01b038716808552925280832085905551919290917f8c5be1e5ebec7d5bd14f71427d1e84f3dd0314c0f7b2291e5b200ac8c7c3b925906108bb9086815260200190565b60405180910390a350600192915050565b6001600160a01b038316600090815260046020908152604080832033845290915281205460001914610931576001600160a01b03841660009081526004602090815260408083203384529091528120805484929061092b908490611ab1565b90915550505b6001600160a01b03841660009081526003602052604081208054849290610959908490611ab1565b90915550506001600160a01b0380841660008181526003602052604090819020805486019055519091861690600080516020611c8e833981519152906109a29086815260200190565b60405180910390a35060019392505050565b60007f000000000000000000000000000000000000000000000000000000000000000046146109ea576109e56115da565b905090565b507f000000000000000000000000000000000000000000000000000000000000000090565b6006546001600160a01b0316151580610a3257506007546001600160a01b031615155b15610a4f5760405162dc149f60e41b815260040160405180910390fd5b600680546001600160a01b039384166001600160a01b03199182161790915560078054929093169116179055565b6000806000610a8a610836565b506006546040516370a0823160e01b81523060048201529294509092506000916001600160a01b03909116906370a08231906024016020604051808303816000875af1158015610ade573d6000803e3d6000fd5b505050506040513d601f19601f82011682018060405250810190610b029190611a82565b6007546040516370a0823160e01b81523060048201529192506000916001600160a01b03909116906370a08231906024016020604051808303816000875af1158015610b52573d6000803e3d6000fd5b505050506040513d601f19601f82011682018060405250810190610b769190611a82565b90506000610b8d6001600160701b03861684611ab1565b90506000610ba46001600160701b03861684611ab1565b905060025460001415610be4576103e8610bc6610bc18385611ac8565b611689565b610bd09190611ab1565b9650610bdf60006103e86116f9565b610c33565b610c30866001600160701b031660025484610bff9190611ac8565b610c099190611b32565b866001600160701b031660025484610c219190611ac8565b610c2b9190611b32565b611753565b96505b60008711610c5457604051633489be7560e21b815260040160405180910390fd5b610c5e88886116f9565b610c6a8484888861145c565b60408051838152602081018390526001600160a01b038a16917f4c209b5fc8ad50758f13e2e1088ba56a560dff690a1c6fef26394f4c03821c4f910160405180910390a2505050505050919050565b6006546040516370a0823160e01b8152306004820152600091829182916001600160a01b0316906370a08231906024016020604051808303816000875af1158015610d08573d6000803e3d6000fd5b505050506040513d601f19601f82011682018060405250810190610d2c9190611a82565b6007546040516370a0823160e01b81523060048201529192506000916001600160a01b03909116906370a08231906024016020604051808303816000875af1158015610d7c573d6000803e3d6000fd5b505050506040513d601f19601f82011682018060405250810190610da09190611a82565b3060009081526003602052604090205460025491925090610dc18483611ac8565b610dcb9190611b32565b600254909550610ddb8383611ac8565b610de59190611b32565b9350841580610df2575083155b15610e105760405163749383ad60e01b815260040160405180910390fd5b610e1a308261176b565b600654610e31906001600160a01b0316878761136d565b600754610e48906001600160a01b0316878661136d565b6006546040516370a0823160e01b81523060048201526001600160a01b03909116906370a08231906024016020604051808303816000875af1158015610e92573d6000803e3d6000fd5b505050506040513d601f19601f82011682018060405250810190610eb69190611a82565b6007546040516370a0823160e01b81523060048201529194506001600160a01b0316906370a08231906024016020604051808303816000875af1158015610f01573d6000803e3d6000fd5b505050506040513d601f19601f82011682018060405250810190610f259190611a82565b9150600080610f32610836565b5091509150610f438585848461145c565b60408051888152602081018890526001600160a01b038a1681830152905133917fdccd412f0b1252819cb1fd330b93224ca42612892bb3f4f789976e6d81936496919081900360600190a25050505050915091565b600180546107b590611ae7565b33600090815260036020526040812080548391908390610fc6908490611ab1565b90915550506001600160a01b03831660008181526003602052604090819020805485019055513390600080516020611c8e833981519152906108bb9086815260200190565b428410156110605760405162461bcd60e51b815260206004820152601760248201527f5045524d49545f444541444c494e455f4558504952454400000000000000000060448201526064015b60405180910390fd5b600061106a6109b4565b6001600160a01b0389811660008181526005602090815260409182902080546001810190915582517f6e71edae12b1b97f4d1f60370fef10105fa2faae0126114a169c64845d6126c98184015280840194909452938c166060840152608083018b905260a083019390935260c08083018a90528151808403909101815260e08301909152805192019190912061190160f01b6101008301526101028201929092526101228101919091526101420160408051601f198184030181528282528051602091820120600080855291840180845281905260ff88169284019290925260608301869052608083018590529092509060019060a0016020604051602081039080840390855afa158015611183573d6000803e3d6000fd5b5050604051601f1901519150506001600160a01b038116158015906111b95750886001600160a01b0316816001600160a01b0316145b6112055760405162461bcd60e51b815260206004820152601860248201527f494e56414c49445f5045524d49545f5349474e415455524500000000000000006044820152606401611057565b6001600160a01b0390811660009081526004602090815260408083208b8516808552908352928190208a905551898152919350918a16917f8c5be1e5ebec7d5bd14f71427d1e84f3dd0314c0f7b2291e5b200ac8c7c3b925910160405180910390a350505050505050565b60008061127b610836565b506006546040516370a0823160e01b8152306004820152929450909250611369916001600160a01b03909116906370a08231906024016020604051808303816000875af11580156112d0573d6000803e3d6000fd5b505050506040513d601f19601f820116820180604052508101906112f49190611a82565b6007546040516370a0823160e01b81523060048201526001600160a01b03909116906370a08231906024016020604051808303816000875af115801561133e573d6000803e3d6000fd5b505050506040513d601f19601f820116820180604052508101906113629190611a82565b848461145c565b5050565b6040516001600160a01b03838116602483015260448201839052600091829186169060640160408051601f198184030181529181526020820180516001600160e01b031663a9059cbb60e01b179052516113c79190611b46565b6000604051808303816000865af19150503d8060008114611404576040519150601f19603f3d011682016040523d82523d6000602084013e611409565b606091505b509150915081158061143757508051158015906114375750808060200190518101906114359190611b62565b155b15611455576040516312171d8360e31b815260040160405180910390fd5b5050505050565b6001600160701b0384118061147757506001600160701b0383115b15611495576040516389560ca160e01b815260040160405180910390fd5b60085463ffffffff600160e01b90910481164203908116158015906114c357506000836001600160701b0316115b80156114d857506000826001600160701b0316115b15611543578063ffffffff16611500846114f1856117cd565b6001600160e01b0316906117ec565b600980546001600160e01b03929092169290920201905563ffffffff811661152b836114f1866117cd565b600a80546001600160e01b0392909216929092020190555b506008805463ffffffff4216600160e01b026001600160e01b036001600160701b03878116600160701b9081026001600160e01b03199095168a83161794909417918216831794859055604080519382169282169290921783529290930490911660208201527fcf2aa50876cdfbb541206f89af0ee78d44a2abf8d328e37fa4917f982149848a910160405180910390a150505050565b60007f8b73c3c69bb8fe3d512ecc4cf759cc79239f7b179b0ffacaa9a75d522b39400f600060405161160c9190611b84565b60408051918290038220828201825260018352603160f81b6020938401528151928301939093528101919091527fc89efdaa54c0f20c7adf612882df0950f5a951637e0307cdcb4c672f298b8bc660608201524660808201523060a082015260c00160405160208183030381529060405280519060200120905090565b600060038211156116ea57508060006116a3600283611b32565b6116ae906001611c20565b90505b818110156116e4579050806002816116c98186611b32565b6116d39190611c20565b6116dd9190611b32565b90506116b1565b50919050565b81156116f4575060015b919050565b806002600082825461170b9190611c20565b90915550506001600160a01b038216600081815260036020908152604080832080548601905551848152600080516020611c8e83398151915291015b60405180910390a35050565b60008183106117625781611764565b825b9392505050565b6001600160a01b03821660009081526003602052604081208054839290611793908490611ab1565b90915550506002805482900390556040518181526000906001600160a01b03841690600080516020611c8e83398151915290602001611747565b60006117e6600160701b6001600160701b038416611c38565b92915050565b60006117646001600160701b03831684611c67565b80356001600160a01b03811681146116f457600080fd5b60008060008060006080868803121561183057600080fd5b853594506020860135935061184760408701611801565b9250606086013567ffffffffffffffff8082111561186457600080fd5b818801915088601f83011261187857600080fd5b81358181111561188757600080fd5b89602082850101111561189957600080fd5b9699959850939650602001949392505050565b60005b838110156118c75781810151838201526020016118af565b838111156118d6576000848401525b50505050565b60208152600082518060208401526118fb8160408501602087016118ac565b601f01601f19169190910160400192915050565b6000806040838503121561192257600080fd5b61192b83611801565b946020939093013593505050565b60008060006060848603121561194e57600080fd5b61195784611801565b925061196560208501611801565b9150604084013590509250925092565b6000806040838503121561198857600080fd5b61199183611801565b915061199f60208401611801565b90509250929050565b6000602082840312156119ba57600080fd5b61176482611801565b600080600080600080600060e0888a0312156119de57600080fd5b6119e788611801565b96506119f560208901611801565b95506040880135945060608801359350608088013560ff81168114611a1957600080fd5b9699959850939692959460a0840135945060c09093013592915050565b60018060a01b038616815284602082015283604082015260806060820152816080820152818360a0830137600081830160a090810191909152601f909201601f19160101949350505050565b600060208284031215611a9457600080fd5b5051919050565b634e487b7160e01b600052601160045260246000fd5b600082821015611ac357611ac3611a9b565b500390565b6000816000190483118215151615611ae257611ae2611a9b565b500290565b600181811c90821680611afb57607f821691505b602082108114156116e457634e487b7160e01b600052602260045260246000fd5b634e487b7160e01b600052601260045260246000fd5b600082611b4157611b41611b1c565b500490565b60008251611b588184602087016118ac565b9190910192915050565b600060208284031215611b7457600080fd5b8151801515811461176457600080fd5b600080835481600182811c915080831680611ba057607f831692505b6020808410821415611bc057634e487b7160e01b86526022600452602486fd5b818015611bd45760018114611be557611c12565b60ff19861689528489019650611c12565b60008a81526020902060005b86811015611c0a5781548b820152908501908301611bf1565b505084890196505b509498975050505050505050565b60008219821115611c3357611c33611a9b565b500190565b60006001600160e01b0382811684821681151582840482111615611c5e57611c5e611a9b565b02949350505050565b60006001600160e01b0383811680611c8157611c81611b1c565b9216919091049291505056feddf252ad1be2c89b69c2b068fc378daa952ba7f163c4a11628f55a4df523b3efa2646970667358221220161a0a3d0e81b46ab8e8c66727f8726f15ae4a679622d8a6b2dbc01c28f5f97064736f6c634300080a0033a2646970667358221220985443c8cdb6c5087fc0e463af57604ad0125c169e1c2843d2fbe7e9e16aa17a64736f6c634300080a0033","linkReferences":{}},"methodIdentifiers":{"getAmountIn(uint256,uint256,uint256)":"85f8c259","getAmountOut(uint256,uint256,uint256)":"054d50d4","getAmountsIn(address,uint256,address[])":"192128b2","getAmountsOut(address,uint256,address[])":"bb7b9c76","getReserves(address,address,address)":"32749461","quote(uint256,uint256,uint256)":"ad615dec"},"id":8}